{
  "_format": "hh-sol-artifact-1",
  "contractName": "TokenFactory",
  "sourceName": "contracts/TokenFactory.sol",
  "abi": [
    {
      "inputs": [],
      "stateMutability": "nonpayable",
      "type": "constructor"
    },
    {
      "inputs": [],
      "name": "INITIAL_AMOUNT",
      "outputs": [
        {
          "internalType": "uint256",
          "name": "",
          "type": "uint256"
        }
      ],
      "stateMutability": "view",
      "type": "function"
    },
    {
      "inputs": [],
      "name": "contractAddress",
      "outputs": [
        {
          "internalType": "address",
          "name": "",
          "type": "address"
        }
      ],
      "stateMutability": "view",
      "type": "function"
    },
    {
      "inputs": [],
      "name": "currentTokenIndex",
      "outputs": [
        {
          "internalType": "uint256",
          "name": "",
          "type": "uint256"
        }
      ],
      "stateMutability": "view",
      "type": "function"
    },
    {
      "inputs": [
        {
          "internalType": "string",
          "name": "name",
          "type": "string"
        },
        {
          "internalType": "string",
          "name": "ticker",
          "type": "string"
        }
      ],
      "name": "deployERC20Token",
      "outputs": [],
      "stateMutability": "payable",
      "type": "function"
    },
    {
      "inputs": [
        {
          "internalType": "address",
          "name": "newAddr",
          "type": "address"
        }
      ],
      "name": "setPoolAddress",
      "outputs": [],
      "stateMutability": "nonpayable",
      "type": "function"
    },
    {
      "inputs": [],
      "name": "taxAddress",
      "outputs": [
        {
          "internalType": "address",
          "name": "",
          "type": "address"
        }
      ],
      "stateMutability": "view",
      "type": "function"
    },
    {
      "inputs": [
        {
          "internalType": "uint256",
          "name": "",
          "type": "uint256"
        }
      ],
      "name": "tokens",
      "outputs": [
        {
          "internalType": "address",
          "name": "tokenAddress",
          "type": "address"
        },
        {
          "internalType": "string",
          "name": "tokenName",
          "type": "string"
        },
        {
          "internalType": "string",
          "name": "tokenSymbol",
          "type": "string"
        },
        {
          "internalType": "uint256",
          "name": "totalSupply",
          "type": "uint256"
        }
      ],
      "stateMutability": "view",
      "type": "function"
    }
  ],
  "bytecode": "0x60a0604052600080556b033b2e3c9fd0803ce800000060809081525073044421aabf1c584cd594f9c10b0bbc98546cf8bc600260006101000a81548173ffffffffffffffffffffffffffffffffffffffff021916908373ffffffffffffffffffffffffffffffffffffffff16021790555034801561007c57600080fd5b50608051612a5d6100b4600039600081816101d6015281816101fe015281816102900152818161039f01526105440152612a5d6000f3fe6080604052600436106200007a5760003560e01c8063b7bda68f1162000055578063b7bda68f1462000116578063e9e15b4f1462000146578063f6b4dfb41462000174578063fdebc46b14620001a4576200007a565b806313982e37146200007f5780632c21fc1e14620000af5780634f64b2be14620000cf575b600080fd5b3480156200008c57600080fd5b5062000097620001d4565b604051620000a691906200086e565b60405180910390f35b620000cd6004803603810190620000c7919062000a01565b620001f8565b005b348015620000dc57600080fd5b50620000fb6004803603810190620000f5919062000ab7565b620005bc565b6040516200010d949392919062000bb7565b60405180910390f35b3480156200012357600080fd5b506200012e6200073d565b6040516200013d919062000c12565b60405180910390f35b3480156200015357600080fd5b506200017260048036038101906200016c919062000c60565b62000763565b005b3480156200018157600080fd5b506200018c62000819565b6040516200019b919062000c12565b60405180910390f35b348015620001b157600080fd5b50620001bc6200083f565b604051620001cb91906200086e565b60405180910390f35b7f000000000000000000000000000000000000000000000000000000000000000081565b600082827f00000000000000000000000000000000000000000000000000000000000000006040516200022b9062000845565b620002399392919062000c92565b604051809103906000f08015801562000256573d6000803e3d6000fd5b509050600360405180608001604052808373ffffffffffffffffffffffffffffffffffffffff1681526020018581526020018481526020017f0000000000000000000000000000000000000000000000000000000000000000815250908060018154018082558091505060019003906000526020600020906004020160009091909190915060008201518160000160006101000a81548173ffffffffffffffffffffffffffffffffffffffff021916908373ffffffffffffffffffffffffffffffffffffffff160217905550602082015181600101908162000339919062000f13565b50604082015181600201908162000351919062000f13565b506060820151816003015550508073ffffffffffffffffffffffffffffffffffffffff1663095ea7b3600160009054906101000a900473ffffffffffffffffffffffffffffffffffffffff167f00000000000000000000000000000000000000000000000000000000000000006040518363ffffffff1660e01b8152600401620003dd92919062000ffa565b6020604051808303816000875af1158015620003fd573d6000803e3d6000fd5b505050506040513d601f19601f8201168201806040525081019062000423919062001064565b506000600160009054906101000a900473ffffffffffffffffffffffffffffffffffffffff1673ffffffffffffffffffffffffffffffffffffffff16634244a6e26040518163ffffffff1660e01b8152600401602060405180830381865afa15801562000494573d6000803e3d6000fd5b505050506040513d601f19601f82011682018060405250810190620004ba9190620010ad565b90508034101562000502576040517f08c379a0000000000000000000000000000000000000000000000000000000008152600401620004f9906200112f565b60405180910390fd5b600160009054906101000a900473ffffffffffffffffffffffffffffffffffffffff1673ffffffffffffffffffffffffffffffffffffffff166312d3617182847f00000000000000000000000000000000000000000000000000000000000000006040518463ffffffff1660e01b81526004016200058292919062000ffa565b6000604051808303818588803b1580156200059c57600080fd5b505af1158015620005b1573d6000803e3d6000fd5b505050505050505050565b60038181548110620005cd57600080fd5b90600052602060002090600402016000915090508060000160009054906101000a900473ffffffffffffffffffffffffffffffffffffffff1690806001018054620006189062000d0c565b80601f0160208091040260200160405190810160405280929190818152602001828054620006469062000d0c565b8015620006975780601f106200066b5761010080835404028352916020019162000697565b820191906000526020600020905b8154815290600101906020018083116200067957829003601f168201915b505050505090806002018054620006ae9062000d0c565b80601f0160208091040260200160405190810160405280929190818152602001828054620006dc9062000d0c565b80156200072d5780601f1062000701576101008083540402835291602001916200072d565b820191906000526020600020905b8154815290600101906020018083116200070f57829003601f168201915b5050505050908060030154905084565b600260009054906101000a900473ffffffffffffffffffffffffffffffffffffffff1681565b600073ffffffffffffffffffffffffffffffffffffffff168173ffffffffffffffffffffffffffffffffffffffff1603620007d5576040517f08c379a0000000000000000000000000000000000000000000000000000000008152600401620007cc90620011a1565b60405180910390fd5b80600160006101000a81548173ffffffffffffffffffffffffffffffffffffffff021916908373ffffffffffffffffffffffffffffffffffffffff16021790555050565b600160009054906101000a900473ffffffffffffffffffffffffffffffffffffffff1681565b60005481565b61186480620011c483390190565b6000819050919050565b620008688162000853565b82525050565b60006020820190506200088560008301846200085d565b92915050565b6000604051905090565b600080fd5b600080fd5b600080fd5b600080fd5b6000601f19601f8301169050919050565b7f4e487b7100000000000000000000000000000000000000000000000000000000600052604160045260246000fd5b620008f482620008a9565b810181811067ffffffffffffffff82111715620009165762000915620008ba565b5b80604052505050565b60006200092b6200088b565b9050620009398282620008e9565b919050565b600067ffffffffffffffff8211156200095c576200095b620008ba565b5b6200096782620008a9565b9050602081019050919050565b82818337600083830152505050565b60006200099a62000994846200093e565b6200091f565b905082815260208101848484011115620009b957620009b8620008a4565b5b620009c684828562000974565b509392505050565b600082601f830112620009e657620009e56200089f565b5b8135620009f884826020860162000983565b91505092915050565b6000806040838503121562000a1b5762000a1a62000895565b5b600083013567ffffffffffffffff81111562000a3c5762000a3b6200089a565b5b62000a4a85828601620009ce565b925050602083013567ffffffffffffffff81111562000a6e5762000a6d6200089a565b5b62000a7c85828601620009ce565b9150509250929050565b62000a918162000853565b811462000a9d57600080fd5b50565b60008135905062000ab18162000a86565b92915050565b60006020828403121562000ad05762000acf62000895565b5b600062000ae08482850162000aa0565b91505092915050565b600073ffffffffffffffffffffffffffffffffffffffff82169050919050565b600062000b168262000ae9565b9050919050565b62000b288162000b09565b82525050565b600081519050919050565b600082825260208201905092915050565b60005b8381101562000b6a57808201518184015260208101905062000b4d565b60008484015250505050565b600062000b838262000b2e565b62000b8f818562000b39565b935062000ba181856020860162000b4a565b62000bac81620008a9565b840191505092915050565b600060808201905062000bce600083018762000b1d565b818103602083015262000be2818662000b76565b9050818103604083015262000bf8818562000b76565b905062000c0960608301846200085d565b95945050505050565b600060208201905062000c29600083018462000b1d565b92915050565b62000c3a8162000b09565b811462000c4657600080fd5b50565b60008135905062000c5a8162000c2f565b92915050565b60006020828403121562000c795762000c7862000895565b5b600062000c898482850162000c49565b91505092915050565b6000606082019050818103600083015262000cae818662000b76565b9050818103602083015262000cc4818562000b76565b905062000cd560408301846200085d565b949350505050565b7f4e487b7100000000000000000000000000000000000000000000000000000000600052602260045260246000fd5b6000600282049050600182168062000d2557607f821691505b60208210810362000d3b5762000d3a62000cdd565b5b50919050565b60008190508160005260206000209050919050565b60006020601f8301049050919050565b600082821b905092915050565b60006008830262000da57fffffffffffffffffffffffffffffffffffffffffffffffffffffffffffffffff8262000d66565b62000db1868362000d66565b95508019841693508086168417925050509392505050565b6000819050919050565b600062000df462000dee62000de88462000853565b62000dc9565b62000853565b9050919050565b6000819050919050565b62000e108362000dd3565b62000e2862000e1f8262000dfb565b84845462000d73565b825550505050565b600090565b62000e3f62000e30565b62000e4c81848462000e05565b505050565b5b8181101562000e745762000e6860008262000e35565b60018101905062000e52565b5050565b601f82111562000ec35762000e8d8162000d41565b62000e988462000d56565b8101602085101562000ea8578190505b62000ec062000eb78562000d56565b83018262000e51565b50505b505050565b600082821c905092915050565b600062000ee86000198460080262000ec8565b1980831691505092915050565b600062000f03838362000ed5565b9150826002028217905092915050565b62000f1e8262000b2e565b67ffffffffffffffff81111562000f3a5762000f39620008ba565b5b62000f46825462000d0c565b62000f5382828562000e78565b600060209050601f83116001811462000f8b576000841562000f76578287015190505b62000f82858262000ef5565b86555062000ff2565b601f19841662000f9b8662000d41565b60005b8281101562000fc55784890151825560018201915060208501945060208101905062000f9e565b8683101562000fe5578489015162000fe1601f89168262000ed5565b8355505b6001600288020188555050505b505050505050565b600060408201905062001011600083018562000b1d565b6200102060208301846200085d565b9392505050565b60008115159050919050565b6200103e8162001027565b81146200104a57600080fd5b50565b6000815190506200105e8162001033565b92915050565b6000602082840312156200107d576200107c62000895565b5b60006200108d848285016200104d565b91505092915050565b600081519050620010a78162000a86565b92915050565b600060208284031215620010c657620010c562000895565b5b6000620010d68482850162001096565b91505092915050565b7f496e7075742042616c616e63652053686f756c64204265206c61726765720000600082015250565b600062001117601e8362000b39565b91506200112482620010df565b602082019050919050565b600060208201905081810360008301526200114a8162001108565b9050919050565b7f4e6f6e207a65726f204164647265737300000000000000000000000000000000600082015250565b60006200118960108362000b39565b9150620011968262001151565b602082019050919050565b60006020820190508181036000830152620011bc816200117a565b905091905056fe60806040523480156200001157600080fd5b506040516200186438038062001864833981810160405281019062000037919062000505565b828281600390816200004a9190620007e0565b5080600490816200005c9190620007e0565b5050506200007133826200007a60201b60201c565b505050620009fe565b600073ffffffffffffffffffffffffffffffffffffffff168273ffffffffffffffffffffffffffffffffffffffff1603620000ef5760006040517fec442f05000000000000000000000000000000000000000000000000000000008152600401620000e691906200090c565b60405180910390fd5b62000103600083836200010760201b60201c565b5050565b600073ffffffffffffffffffffffffffffffffffffffff168373ffffffffffffffffffffffffffffffffffffffff16036200015d57806002600082825462000150919062000958565b9250508190555062000233565b60008060008573ffffffffffffffffffffffffffffffffffffffff1673ffffffffffffffffffffffffffffffffffffffff16815260200190815260200160002054905081811015620001ec578381836040517fe450d38c000000000000000000000000000000000000000000000000000000008152600401620001e393929190620009a4565b60405180910390fd5b8181036000808673ffffffffffffffffffffffffffffffffffffffff1673ffffffffffffffffffffffffffffffffffffffff16815260200190815260200160002081905550505b600073ffffffffffffffffffffffffffffffffffffffff168273ffffffffffffffffffffffffffffffffffffffff16036200027e5780600260008282540392505081905550620002cb565b806000808473ffffffffffffffffffffffffffffffffffffffff1673ffffffffffffffffffffffffffffffffffffffff168152602001908152602001600020600082825401925050819055505b8173ffffffffffffffffffffffffffffffffffffffff168373ffffffffffffffffffffffffffffffffffffffff167fddf252ad1be2c89b69c2b068fc378daa952ba7f163c4a11628f55a4df523b3ef836040516200032a9190620009e1565b60405180910390a3505050565b6000604051905090565b600080fd5b600080fd5b600080fd5b600080fd5b6000601f19601f8301169050919050565b7f4e487b7100000000000000000000000000000000000000000000000000000000600052604160045260246000fd5b620003a08262000355565b810181811067ffffffffffffffff82111715620003c257620003c162000366565b5b80604052505050565b6000620003d762000337565b9050620003e5828262000395565b919050565b600067ffffffffffffffff82111562000408576200040762000366565b5b620004138262000355565b9050602081019050919050565b60005b838110156200044057808201518184015260208101905062000423565b60008484015250505050565b6000620004636200045d84620003ea565b620003cb565b90508281526020810184848401111562000482576200048162000350565b5b6200048f84828562000420565b509392505050565b600082601f830112620004af57620004ae6200034b565b5b8151620004c18482602086016200044c565b91505092915050565b6000819050919050565b620004df81620004ca565b8114620004eb57600080fd5b50565b600081519050620004ff81620004d4565b92915050565b60008060006060848603121562000521576200052062000341565b5b600084015167ffffffffffffffff81111562000542576200054162000346565b5b620005508682870162000497565b935050602084015167ffffffffffffffff81111562000574576200057362000346565b5b620005828682870162000497565b92505060406200059586828701620004ee565b9150509250925092565b600081519050919050565b7f4e487b7100000000000000000000000000000000000000000000000000000000600052602260045260246000fd5b60006002820490506001821680620005f257607f821691505b602082108103620006085762000607620005aa565b5b50919050565b60008190508160005260206000209050919050565b60006020601f8301049050919050565b600082821b905092915050565b600060088302620006727fffffffffffffffffffffffffffffffffffffffffffffffffffffffffffffffff8262000633565b6200067e868362000633565b95508019841693508086168417925050509392505050565b6000819050919050565b6000620006c1620006bb620006b584620004ca565b62000696565b620004ca565b9050919050565b6000819050919050565b620006dd83620006a0565b620006f5620006ec82620006c8565b84845462000640565b825550505050565b600090565b6200070c620006fd565b62000719818484620006d2565b505050565b5b8181101562000741576200073560008262000702565b6001810190506200071f565b5050565b601f82111562000790576200075a816200060e565b620007658462000623565b8101602085101562000775578190505b6200078d620007848562000623565b8301826200071e565b50505b505050565b600082821c905092915050565b6000620007b56000198460080262000795565b1980831691505092915050565b6000620007d08383620007a2565b9150826002028217905092915050565b620007eb826200059f565b67ffffffffffffffff81111562000807576200080662000366565b5b620008138254620005d9565b6200082082828562000745565b600060209050601f83116001811462000858576000841562000843578287015190505b6200084f8582620007c2565b865550620008bf565b601f19841662000868866200060e565b60005b8281101562000892578489015182556001820191506020850194506020810190506200086b565b86831015620008b25784890151620008ae601f891682620007a2565b8355505b6001600288020188555050505b505050505050565b600073ffffffffffffffffffffffffffffffffffffffff82169050919050565b6000620008f482620008c7565b9050919050565b6200090681620008e7565b82525050565b6000602082019050620009236000830184620008fb565b92915050565b7f4e487b7100000000000000000000000000000000000000000000000000000000600052601160045260246000fd5b60006200096582620004ca565b91506200097283620004ca565b92508282019050808211156200098d576200098c62000929565b5b92915050565b6200099e81620004ca565b82525050565b6000606082019050620009bb6000830186620008fb565b620009ca602083018562000993565b620009d9604083018462000993565b949350505050565b6000602082019050620009f8600083018462000993565b92915050565b610e568062000a0e6000396000f3fe608060405234801561001057600080fd5b50600436106100935760003560e01c8063313ce56711610066578063313ce5671461013457806370a082311461015257806395d89b4114610182578063a9059cbb146101a0578063dd62ed3e146101d057610093565b806306fdde0314610098578063095ea7b3146100b657806318160ddd146100e657806323b872dd14610104575b600080fd5b6100a0610200565b6040516100ad9190610aaa565b60405180910390f35b6100d060048036038101906100cb9190610b65565b610292565b6040516100dd9190610bc0565b60405180910390f35b6100ee6102b5565b6040516100fb9190610bea565b60405180910390f35b61011e60048036038101906101199190610c05565b6102bf565b60405161012b9190610bc0565b60405180910390f35b61013c6102ee565b6040516101499190610c74565b60405180910390f35b61016c60048036038101906101679190610c8f565b6102f7565b6040516101799190610bea565b60405180910390f35b61018a61033f565b6040516101979190610aaa565b60405180910390f35b6101ba60048036038101906101b59190610b65565b6103d1565b6040516101c79190610bc0565b60405180910390f35b6101ea60048036038101906101e59190610cbc565b6103f4565b6040516101f79190610bea565b60405180910390f35b60606003805461020f90610d2b565b80601f016020809104026020016040519081016040528092919081815260200182805461023b90610d2b565b80156102885780601f1061025d57610100808354040283529160200191610288565b820191906000526020600020905b81548152906001019060200180831161026b57829003601f168201915b5050505050905090565b60008061029d61047b565b90506102aa818585610483565b600191505092915050565b6000600254905090565b6000806102ca61047b565b90506102d7858285610495565b6102e285858561052a565b60019150509392505050565b60006012905090565b60008060008373ffffffffffffffffffffffffffffffffffffffff1673ffffffffffffffffffffffffffffffffffffffff168152602001908152602001600020549050919050565b60606004805461034e90610d2b565b80601f016020809104026020016040519081016040528092919081815260200182805461037a90610d2b565b80156103c75780601f1061039c576101008083540402835291602001916103c7565b820191906000526020600020905b8154815290600101906020018083116103aa57829003601f168201915b5050505050905090565b6000806103dc61047b565b90506103e981858561052a565b600191505092915050565b6000600160008473ffffffffffffffffffffffffffffffffffffffff1673ffffffffffffffffffffffffffffffffffffffff16815260200190815260200160002060008373ffffffffffffffffffffffffffffffffffffffff1673ffffffffffffffffffffffffffffffffffffffff16815260200190815260200160002054905092915050565b600033905090565b610490838383600161061e565b505050565b60006104a184846103f4565b90507fffffffffffffffffffffffffffffffffffffffffffffffffffffffffffffffff8110156105245781811015610514578281836040517ffb8f41b200000000000000000000000000000000000000000000000000000000815260040161050b93929190610d6b565b60405180910390fd5b6105238484848403600061061e565b5b50505050565b600073ffffffffffffffffffffffffffffffffffffffff168373ffffffffffffffffffffffffffffffffffffffff160361059c5760006040517f96c6fd1e0000000000000000000000000000000000000000000000000000000081526004016105939190610da2565b60405180910390fd5b600073ffffffffffffffffffffffffffffffffffffffff168273ffffffffffffffffffffffffffffffffffffffff160361060e5760006040517fec442f050000000000000000000000000000000000000000000000000000000081526004016106059190610da2565b60405180910390fd5b6106198383836107f5565b505050565b600073ffffffffffffffffffffffffffffffffffffffff168473ffffffffffffffffffffffffffffffffffffffff16036106905760006040517fe602df050000000000000000000000000000000000000000000000000000000081526004016106879190610da2565b60405180910390fd5b600073ffffffffffffffffffffffffffffffffffffffff168373ffffffffffffffffffffffffffffffffffffffff16036107025760006040517f94280d620000000000000000000000000000000000000000000000000000000081526004016106f99190610da2565b60405180910390fd5b81600160008673ffffffffffffffffffffffffffffffffffffffff1673ffffffffffffffffffffffffffffffffffffffff16815260200190815260200160002060008573ffffffffffffffffffffffffffffffffffffffff1673ffffffffffffffffffffffffffffffffffffffff1681526020019081526020016000208190555080156107ef578273ffffffffffffffffffffffffffffffffffffffff168473ffffffffffffffffffffffffffffffffffffffff167f8c5be1e5ebec7d5bd14f71427d1e84f3dd0314c0f7b2291e5b200ac8c7c3b925846040516107e69190610bea565b60405180910390a35b50505050565b600073ffffffffffffffffffffffffffffffffffffffff168373ffffffffffffffffffffffffffffffffffffffff160361084757806002600082825461083b9190610dec565b9250508190555061091a565b60008060008573ffffffffffffffffffffffffffffffffffffffff1673ffffffffffffffffffffffffffffffffffffffff168152602001908152602001600020549050818110156108d3578381836040517fe450d38c0000000000000000000000000000000000000000000000000000000081526004016108ca93929190610d6b565b60405180910390fd5b8181036000808673ffffffffffffffffffffffffffffffffffffffff1673ffffffffffffffffffffffffffffffffffffffff16815260200190815260200160002081905550505b600073ffffffffffffffffffffffffffffffffffffffff168273ffffffffffffffffffffffffffffffffffffffff160361096357806002600082825403925050819055506109b0565b806000808473ffffffffffffffffffffffffffffffffffffffff1673ffffffffffffffffffffffffffffffffffffffff168152602001908152602001600020600082825401925050819055505b8173ffffffffffffffffffffffffffffffffffffffff168373ffffffffffffffffffffffffffffffffffffffff167fddf252ad1be2c89b69c2b068fc378daa952ba7f163c4a11628f55a4df523b3ef83604051610a0d9190610bea565b60405180910390a3505050565b600081519050919050565b600082825260208201905092915050565b60005b83811015610a54578082015181840152602081019050610a39565b60008484015250505050565b6000601f19601f8301169050919050565b6000610a7c82610a1a565b610a868185610a25565b9350610a96818560208601610a36565b610a9f81610a60565b840191505092915050565b60006020820190508181036000830152610ac48184610a71565b905092915050565b600080fd5b600073ffffffffffffffffffffffffffffffffffffffff82169050919050565b6000610afc82610ad1565b9050919050565b610b0c81610af1565b8114610b1757600080fd5b50565b600081359050610b2981610b03565b92915050565b6000819050919050565b610b4281610b2f565b8114610b4d57600080fd5b50565b600081359050610b5f81610b39565b92915050565b60008060408385031215610b7c57610b7b610acc565b5b6000610b8a85828601610b1a565b9250506020610b9b85828601610b50565b9150509250929050565b60008115159050919050565b610bba81610ba5565b82525050565b6000602082019050610bd56000830184610bb1565b92915050565b610be481610b2f565b82525050565b6000602082019050610bff6000830184610bdb565b92915050565b600080600060608486031215610c1e57610c1d610acc565b5b6000610c2c86828701610b1a565b9350506020610c3d86828701610b1a565b9250506040610c4e86828701610b50565b9150509250925092565b600060ff82169050919050565b610c6e81610c58565b82525050565b6000602082019050610c896000830184610c65565b92915050565b600060208284031215610ca557610ca4610acc565b5b6000610cb384828501610b1a565b91505092915050565b60008060408385031215610cd357610cd2610acc565b5b6000610ce185828601610b1a565b9250506020610cf285828601610b1a565b9150509250929050565b7f4e487b7100000000000000000000000000000000000000000000000000000000600052602260045260246000fd5b60006002820490506001821680610d4357607f821691505b602082108103610d5657610d55610cfc565b5b50919050565b610d6581610af1565b82525050565b6000606082019050610d806000830186610d5c565b610d8d6020830185610bdb565b610d9a6040830184610bdb565b949350505050565b6000602082019050610db76000830184610d5c565b92915050565b7f4e487b7100000000000000000000000000000000000000000000000000000000600052601160045260246000fd5b6000610df782610b2f565b9150610e0283610b2f565b9250828201905080821115610e1a57610e19610dbd565b5b9291505056fea264697066735822122097acb8284f0d4560bb8e832ff05279034c3cc7a627c0f1bbedd62f8808d4020f64736f6c63430008180033a26469706673582212204fc82d5c8292592143abd2b124d2e4f532d7c030d3456d39f2108be222e8462464736f6c63430008180033",
  "linkReferences": {},
  "deployedLinkReferences": {}
}