{
  "_format": "hh-sol-artifact-1",
  "contractName": "PumpFun",
  "sourceName": "contracts/PumpFun.sol",
  "abi": [
    {
      "inputs": [
        {
          "internalType": "address",
          "name": "newAddr",
          "type": "address"
        },
        {
          "internalType": "uint256",
          "name": "feeAmt",
          "type": "uint256"
        },
        {
          "internalType": "uint256",
          "name": "basisFee",
          "type": "uint256"
        }
      ],
      "stateMutability": "nonpayable",
      "type": "constructor"
    },
    {
      "inputs": [],
      "name": "ReentrancyGuardReentrantCall",
      "type": "error"
    },
    {
      "anonymous": false,
      "inputs": [
        {
          "indexed": true,
          "internalType": "address",
          "name": "user",
          "type": "address"
        },
        {
          "indexed": true,
          "internalType": "address",
          "name": "mint",
          "type": "address"
        },
        {
          "indexed": false,
          "internalType": "uint256",
          "name": "timestamp",
          "type": "uint256"
        }
      ],
      "name": "Complete",
      "type": "event"
    },
    {
      "anonymous": false,
      "inputs": [
        {
          "indexed": true,
          "internalType": "address",
          "name": "mint",
          "type": "address"
        },
        {
          "indexed": true,
          "internalType": "address",
          "name": "user",
          "type": "address"
        }
      ],
      "name": "CreatePool",
      "type": "event"
    },
    {
      "anonymous": false,
      "inputs": [
        {
          "indexed": true,
          "internalType": "address",
          "name": "mint",
          "type": "address"
        },
        {
          "indexed": false,
          "internalType": "uint256",
          "name": "ethAmount",
          "type": "uint256"
        },
        {
          "indexed": false,
          "internalType": "uint256",
          "name": "tokenAmount",
          "type": "uint256"
        },
        {
          "indexed": false,
          "internalType": "bool",
          "name": "isBuy",
          "type": "bool"
        },
        {
          "indexed": true,
          "internalType": "address",
          "name": "user",
          "type": "address"
        },
        {
          "indexed": false,
          "internalType": "uint256",
          "name": "timestamp",
          "type": "uint256"
        },
        {
          "indexed": false,
          "internalType": "uint256",
          "name": "virtualEthReserves",
          "type": "uint256"
        },
        {
          "indexed": false,
          "internalType": "uint256",
          "name": "virtualTokenReserves",
          "type": "uint256"
        }
      ],
      "name": "Trade",
      "type": "event"
    },
    {
      "inputs": [
        {
          "internalType": "address",
          "name": "",
          "type": "address"
        }
      ],
      "name": "bondingCurve",
      "outputs": [
        {
          "internalType": "address",
          "name": "tokenMint",
          "type": "address"
        },
        {
          "internalType": "uint256",
          "name": "virtualTokenReserves",
          "type": "uint256"
        },
        {
          "internalType": "uint256",
          "name": "virtualEthReserves",
          "type": "uint256"
        },
        {
          "internalType": "uint256",
          "name": "realTokenReserves",
          "type": "uint256"
        },
        {
          "internalType": "uint256",
          "name": "realEthReserves",
          "type": "uint256"
        },
        {
          "internalType": "uint256",
          "name": "tokenTotalSupply",
          "type": "uint256"
        },
        {
          "internalType": "uint256",
          "name": "mcapLimit",
          "type": "uint256"
        },
        {
          "internalType": "bool",
          "name": "complete",
          "type": "bool"
        }
      ],
      "stateMutability": "view",
      "type": "function"
    },
    {
      "inputs": [
        {
          "internalType": "address",
          "name": "token",
          "type": "address"
        },
        {
          "internalType": "uint256",
          "name": "amount",
          "type": "uint256"
        },
        {
          "internalType": "uint256",
          "name": "maxEthCost",
          "type": "uint256"
        }
      ],
      "name": "buy",
      "outputs": [],
      "stateMutability": "payable",
      "type": "function"
    },
    {
      "inputs": [
        {
          "components": [
            {
              "internalType": "address",
              "name": "tokenMint",
              "type": "address"
            },
            {
              "internalType": "uint256",
              "name": "virtualTokenReserves",
              "type": "uint256"
            },
            {
              "internalType": "uint256",
              "name": "virtualEthReserves",
              "type": "uint256"
            },
            {
              "internalType": "uint256",
              "name": "realTokenReserves",
              "type": "uint256"
            },
            {
              "internalType": "uint256",
              "name": "realEthReserves",
              "type": "uint256"
            },
            {
              "internalType": "uint256",
              "name": "tokenTotalSupply",
              "type": "uint256"
            },
            {
              "internalType": "uint256",
              "name": "mcapLimit",
              "type": "uint256"
            },
            {
              "internalType": "bool",
              "name": "complete",
              "type": "bool"
            }
          ],
          "internalType": "struct PumpFun.Token",
          "name": "token",
          "type": "tuple"
        },
        {
          "internalType": "uint256",
          "name": "tokenAmount",
          "type": "uint256"
        }
      ],
      "name": "calculateEthCost",
      "outputs": [
        {
          "internalType": "uint256",
          "name": "",
          "type": "uint256"
        }
      ],
      "stateMutability": "pure",
      "type": "function"
    },
    {
      "inputs": [
        {
          "internalType": "address",
          "name": "token",
          "type": "address"
        },
        {
          "internalType": "uint256",
          "name": "amount",
          "type": "uint256"
        }
      ],
      "name": "createPool",
      "outputs": [],
      "stateMutability": "payable",
      "type": "function"
    },
    {
      "inputs": [
        {
          "internalType": "address",
          "name": "mint",
          "type": "address"
        }
      ],
      "name": "getBondingCurve",
      "outputs": [
        {
          "components": [
            {
              "internalType": "address",
              "name": "tokenMint",
              "type": "address"
            },
            {
              "internalType": "uint256",
              "name": "virtualTokenReserves",
              "type": "uint256"
            },
            {
              "internalType": "uint256",
              "name": "virtualEthReserves",
              "type": "uint256"
            },
            {
              "internalType": "uint256",
              "name": "realTokenReserves",
              "type": "uint256"
            },
            {
              "internalType": "uint256",
              "name": "realEthReserves",
              "type": "uint256"
            },
            {
              "internalType": "uint256",
              "name": "tokenTotalSupply",
              "type": "uint256"
            },
            {
              "internalType": "uint256",
              "name": "mcapLimit",
              "type": "uint256"
            },
            {
              "internalType": "bool",
              "name": "complete",
              "type": "bool"
            }
          ],
          "internalType": "struct PumpFun.Token",
          "name": "",
          "type": "tuple"
        }
      ],
      "stateMutability": "view",
      "type": "function"
    },
    {
      "inputs": [],
      "name": "getCreateFee",
      "outputs": [
        {
          "internalType": "uint256",
          "name": "",
          "type": "uint256"
        }
      ],
      "stateMutability": "view",
      "type": "function"
    },
    {
      "inputs": [
        {
          "internalType": "address",
          "name": "token",
          "type": "address"
        },
        {
          "internalType": "uint256",
          "name": "amount",
          "type": "uint256"
        },
        {
          "internalType": "uint256",
          "name": "minEthOutput",
          "type": "uint256"
        }
      ],
      "name": "sell",
      "outputs": [],
      "stateMutability": "nonpayable",
      "type": "function"
    },
    {
      "inputs": [
        {
          "internalType": "uint256",
          "name": "newBasisPoint",
          "type": "uint256"
        },
        {
          "internalType": "uint256",
          "name": "newCreateFee",
          "type": "uint256"
        }
      ],
      "name": "setFeeAmount",
      "outputs": [],
      "stateMutability": "nonpayable",
      "type": "function"
    },
    {
      "inputs": [
        {
          "internalType": "address",
          "name": "newAddr",
          "type": "address"
        }
      ],
      "name": "setFeeRecipient",
      "outputs": [],
      "stateMutability": "nonpayable",
      "type": "function"
    },
    {
      "inputs": [
        {
          "internalType": "uint256",
          "name": "initToken",
          "type": "uint256"
        },
        {
          "internalType": "uint256",
          "name": "initEth",
          "type": "uint256"
        }
      ],
      "name": "setInitialVirtualReserves",
      "outputs": [],
      "stateMutability": "nonpayable",
      "type": "function"
    },
    {
      "inputs": [
        {
          "internalType": "uint256",
          "name": "newLimit",
          "type": "uint256"
        }
      ],
      "name": "setMcapLimit",
      "outputs": [],
      "stateMutability": "nonpayable",
      "type": "function"
    },
    {
      "inputs": [
        {
          "internalType": "address",
          "name": "newAddr",
          "type": "address"
        }
      ],
      "name": "setOwner",
      "outputs": [],
      "stateMutability": "nonpayable",
      "type": "function"
    },
    {
      "inputs": [
        {
          "internalType": "uint256",
          "name": "newSupply",
          "type": "uint256"
        }
      ],
      "name": "setTotalSupply",
      "outputs": [],
      "stateMutability": "nonpayable",
      "type": "function"
    },
    {
      "inputs": [
        {
          "internalType": "address",
          "name": "token",
          "type": "address"
        }
      ],
      "name": "withdraw",
      "outputs": [],
      "stateMutability": "nonpayable",
      "type": "function"
    },
    {
      "stateMutability": "payable",
      "type": "receive"
    }
  ],
  "bytecode": "0x60806040523480156200001157600080fd5b5060405162002a4e38038062002a4e833981810160405281019062000037919062000183565b600160008190555082600260006101000a81548173ffffffffffffffffffffffffffffffffffffffff021916908373ffffffffffffffffffffffffffffffffffffffff16021790555081600881905550806007819055506b033b2e3c9fd0803ce800000060038190555068a2a15d09519be000006004819055506b033b2e3c9fd0803ce800000060058190555069152d02c7e14af6800000600681905550505050620001df565b600080fd5b600073ffffffffffffffffffffffffffffffffffffffff82169050919050565b60006200011082620000e3565b9050919050565b620001228162000103565b81146200012e57600080fd5b50565b600081519050620001428162000117565b92915050565b6000819050919050565b6200015d8162000148565b81146200016957600080fd5b50565b6000815190506200017d8162000152565b92915050565b6000806000606084860312156200019f576200019e620000de565b5b6000620001af8682870162000131565b9350506020620001c2868287016200016c565b9250506040620001d5868287016200016c565b9150509250925092565b61285f80620001ef6000396000f3fe6080604052600436106100e15760003560e01c806383db2a211161007f578063e74b981b11610059578063e74b981b146102b2578063e8dc132b146102db578063efc2ead814610304578063f7ea7a3d1461032d576100e8565b806383db2a2114610215578063a59ac6dd14610252578063d0c58e481461026e576100e8565b806351cff8d9116100bb57806351cff8d91461015d578063616af17514610186578063648f6aeb146101c35780636a272462146101ec576100e8565b806312d36171146100ed57806313af4035146101095780634244a6e214610132576100e8565b366100e857005b600080fd5b61010760048036038101906101029190611c19565b610356565b005b34801561011557600080fd5b50610130600480360381019061012b9190611c59565b6106fa565b005b34801561013e57600080fd5b5061014761083d565b6040516101549190611c95565b60405180910390f35b34801561016957600080fd5b50610184600480360381019061017f9190611c59565b610847565b005b34801561019257600080fd5b506101ad60048036038101906101a89190611e43565b610a88565b6040516101ba9190611c95565b60405180910390f35b3480156101cf57600080fd5b506101ea60048036038101906101e59190611e85565b610aec565b005b3480156101f857600080fd5b50610213600480360381019061020e9190611eb2565b610bc9565b005b34801561022157600080fd5b5061023c60048036038101906102379190611c59565b61100c565b6040516102499190611fd4565b60405180910390f35b61026c60048036038101906102679190611eb2565b611113565b005b34801561027a57600080fd5b5061029560048036038101906102909190611c59565b6116a2565b6040516102a998979695949392919061200e565b60405180910390f35b3480156102be57600080fd5b506102d960048036038101906102d49190611c59565b611717565b005b3480156102e757600080fd5b5061030260048036038101906102fd919061208c565b61185a565b005b34801561031057600080fd5b5061032b6004803603810190610326919061208c565b61194b565b005b34801561033957600080fd5b50610354600480360381019061034f9190611e85565b611a3c565b005b60008111610399576040517f08c379a000000000000000000000000000000000000000000000000000000000815260040161039090612129565b60405180910390fd5b600073ffffffffffffffffffffffffffffffffffffffff16600260009054906101000a900473ffffffffffffffffffffffffffffffffffffffff1673ffffffffffffffffffffffffffffffffffffffff160361042a576040517f08c379a000000000000000000000000000000000000000000000000000000000815260040161042190612195565b60405180910390fd5b60085434101561046f576040517f08c379a000000000000000000000000000000000000000000000000000000000815260040161046690612201565b60405180910390fd5b8173ffffffffffffffffffffffffffffffffffffffff166323b872dd3330846040518463ffffffff1660e01b81526004016104ac93929190612221565b6020604051808303816000875af11580156104cb573d6000803e3d6000fd5b505050506040513d601f19601f820116820180604052508101906104ef919061226d565b50600260009054906101000a900473ffffffffffffffffffffffffffffffffffffffff1673ffffffffffffffffffffffffffffffffffffffff166108fc6008549081150290604051600060405180830381858888f1935050505015801561055a573d6000803e3d6000fd5b506040518061010001604052808373ffffffffffffffffffffffffffffffffffffffff16815260200160035481526020016004548152602001828152602001600081526020016005548152602001600654815260200160001515815250600a60008473ffffffffffffffffffffffffffffffffffffffff1673ffffffffffffffffffffffffffffffffffffffff16815260200190815260200160002060008201518160000160006101000a81548173ffffffffffffffffffffffffffffffffffffffff021916908373ffffffffffffffffffffffffffffffffffffffff1602179055506020820151816001015560408201518160020155606082015181600301556080820151816004015560a0820151816005015560c0820151816006015560e08201518160070160006101000a81548160ff0219169083151502179055509050503373ffffffffffffffffffffffffffffffffffffffff168273ffffffffffffffffffffffffffffffffffffffff167fdbd2a1ea6808362e6adbec4db4969cbc11e3b0b28fb6c74cb342defaaf1daada60405160405180910390a35050565b600160009054906101000a900473ffffffffffffffffffffffffffffffffffffffff1673ffffffffffffffffffffffffffffffffffffffff163373ffffffffffffffffffffffffffffffffffffffff161461078a576040517f08c379a0000000000000000000000000000000000000000000000000000000008152600401610781906122e6565b60405180910390fd5b600073ffffffffffffffffffffffffffffffffffffffff168173ffffffffffffffffffffffffffffffffffffffff16036107f9576040517f08c379a00000000000000000000000000000000000000000000000000000000081526004016107f090612352565b60405180910390fd5b80600160006101000a81548173ffffffffffffffffffffffffffffffffffffffff021916908373ffffffffffffffffffffffffffffffffffffffff16021790555050565b6000600854905090565b600160009054906101000a900473ffffffffffffffffffffffffffffffffffffffff1673ffffffffffffffffffffffffffffffffffffffff163373ffffffffffffffffffffffffffffffffffffffff16146108d7576040517f08c379a00000000000000000000000000000000000000000000000000000000081526004016108ce906122e6565b60405180910390fd5b6000600a60008373ffffffffffffffffffffffffffffffffffffffff1673ffffffffffffffffffffffffffffffffffffffff1681526020019081526020016000209050600115158160070160009054906101000a900460ff16151514610972576040517f08c379a0000000000000000000000000000000000000000000000000000000008152600401610969906123be565b60405180910390fd5b600160009054906101000a900473ffffffffffffffffffffffffffffffffffffffff1673ffffffffffffffffffffffffffffffffffffffff166108fc82600401549081150290604051600060405180830381858888f193505050501580156109de573d6000803e3d6000fd5b508173ffffffffffffffffffffffffffffffffffffffff1663a9059cbb600160009054906101000a900473ffffffffffffffffffffffffffffffffffffffff1683600301546040518363ffffffff1660e01b8152600401610a409291906123de565b6020604051808303816000875af1158015610a5f573d6000803e3d6000fd5b505050506040513d601f19601f82011682018060405250810190610a83919061226d565b505050565b6000808360200151905060008382610aa09190612436565b9050600085602001518660400151610ab8919061246a565b905060008282610ac891906124db565b90506000876040015182610adc9190612436565b9050809550505050505092915050565b600160009054906101000a900473ffffffffffffffffffffffffffffffffffffffff1673ffffffffffffffffffffffffffffffffffffffff163373ffffffffffffffffffffffffffffffffffffffff1614610b7c576040517f08c379a0000000000000000000000000000000000000000000000000000000008152600401610b73906122e6565b60405180910390fd5b60008111610bbf576040517f08c379a0000000000000000000000000000000000000000000000000000000008152600401610bb690612558565b60405180910390fd5b8060068190555050565b6000600a60008573ffffffffffffffffffffffffffffffffffffffff1673ffffffffffffffffffffffffffffffffffffffff1681526020019081526020016000209050600015158160070160009054906101000a900460ff16151514610c64576040517f08c379a0000000000000000000000000000000000000000000000000000000008152600401610c5b906125c4565b60405180910390fd5b60008311610ca7576040517f08c379a0000000000000000000000000000000000000000000000000000000008152600401610c9e90612558565b60405180910390fd5b6000610d6c82604051806101000160405290816000820160009054906101000a900473ffffffffffffffffffffffffffffffffffffffff1673ffffffffffffffffffffffffffffffffffffffff1673ffffffffffffffffffffffffffffffffffffffff1681526020016001820154815260200160028201548152602001600382015481526020016004820154815260200160058201548152602001600682015481526020016007820160009054906101000a900460ff16151515158152505085610a88565b90508082600401541015610d8257816004015490505b82811015610dc5576040517f08c379a0000000000000000000000000000000000000000000000000000000008152600401610dbc90612630565b60405180910390fd5b600061271082600754610dd8919061246a565b610de291906124db565b9050600260009054906101000a900473ffffffffffffffffffffffffffffffffffffffff1673ffffffffffffffffffffffffffffffffffffffff166108fc829081150290604051600060405180830381858888f19350505050158015610e4c573d6000803e3d6000fd5b503373ffffffffffffffffffffffffffffffffffffffff166108fc8284610e739190612436565b9081150290604051600060405180830381858888f19350505050158015610e9e573d6000803e3d6000fd5b508573ffffffffffffffffffffffffffffffffffffffff166323b872dd3330886040518463ffffffff1660e01b8152600401610edc93929190612221565b6020604051808303816000875af1158015610efb573d6000803e3d6000fd5b505050506040513d601f19601f82011682018060405250810190610f1f919061226d565b5084836003016000828254610f349190612650565b9250508190555084836001016000828254610f4f9190612650565b9250508190555081836002016000828254610f6a9190612436565b9250508190555081836004016000828254610f859190612436565b925050819055503373ffffffffffffffffffffffffffffffffffffffff168673ffffffffffffffffffffffffffffffffffffffff167f671f6af1a2244f88c1a5e6c6310f86653d313027950723ffc12387348a9ed8b3848860004289600201548a60010154604051610ffc96959493929190612684565b60405180910390a3505050505050565b611014611b19565b600a60008373ffffffffffffffffffffffffffffffffffffffff1673ffffffffffffffffffffffffffffffffffffffff168152602001908152602001600020604051806101000160405290816000820160009054906101000a900473ffffffffffffffffffffffffffffffffffffffff1673ffffffffffffffffffffffffffffffffffffffff1673ffffffffffffffffffffffffffffffffffffffff1681526020016001820154815260200160028201548152602001600382015481526020016004820154815260200160058201548152602001600682015481526020016007820160009054906101000a900460ff1615151515815250509050919050565b6000600a60008573ffffffffffffffffffffffffffffffffffffffff1673ffffffffffffffffffffffffffffffffffffffff168152602001908152602001600020905060008311611199576040517f08c379a000000000000000000000000000000000000000000000000000000000815260040161119090612558565b60405180910390fd5b600015158160070160009054906101000a900460ff161515146111f1576040517f08c379a00000000000000000000000000000000000000000000000000000000081526004016111e8906125c4565b60405180910390fd5b60008382600301546112039190612436565b905060008260050154606483611219919061246a565b61122391906124db565b905060148111611268576040517f08c379a000000000000000000000000000000000000000000000000000000000815260040161125f90612731565b60405180910390fd5b600061132d84604051806101000160405290816000820160009054906101000a900473ffffffffffffffffffffffffffffffffffffffff1673ffffffffffffffffffffffffffffffffffffffff1673ffffffffffffffffffffffffffffffffffffffff1681526020016001820154815260200160028201548152602001600382015481526020016004820154815260200160058201548152602001600682015481526020016007820160009054906101000a900460ff16151515158152505087610a88565b905084811115611372576040517f08c379a00000000000000000000000000000000000000000000000000000000081526004016113699061279d565b60405180910390fd5b600061271082600754611385919061246a565b61138f91906124db565b90506000818361139f9190612436565b9050823410156113e4576040517f08c379a00000000000000000000000000000000000000000000000000000000081526004016113db90612809565b60405180910390fd5b600260009054906101000a900473ffffffffffffffffffffffffffffffffffffffff1673ffffffffffffffffffffffffffffffffffffffff166108fc839081150290604051600060405180830381858888f1935050505015801561144c573d6000803e3d6000fd5b508873ffffffffffffffffffffffffffffffffffffffff1663a9059cbb338a6040518363ffffffff1660e01b81526004016114889291906123de565b6020604051808303816000875af11580156114a7573d6000803e3d6000fd5b505050506040513d601f19601f820116820180604052508101906114cb919061226d565b50878660030160008282546114e09190612436565b92505081905550878660010160008282546114fb9190612436565b92505081905550808660020160008282546115169190612650565b92505081905550808660040160008282546115319190612650565b925050819055506000866003015487600501548860020154611553919061246a565b61155d91906124db565b90506000876005015460648960030154611577919061246a565b61158191906124db565b905087600601548211806115955750601481105b1561161d5760018860070160006101000a81548160ff0219169083151502179055508a73ffffffffffffffffffffffffffffffffffffffff163373ffffffffffffffffffffffffffffffffffffffff167f50e82f857ece413f502ecf1e6db36e3f6f1c118bb444db8409896b1bf1d11e3d426040516116149190611c95565b60405180910390a35b3373ffffffffffffffffffffffffffffffffffffffff168b73ffffffffffffffffffffffffffffffffffffffff167f671f6af1a2244f88c1a5e6c6310f86653d313027950723ffc12387348a9ed8b3878d6001428e600201548f6001015460405161168d96959493929190612684565b60405180910390a35050505050505050505050565b600a6020528060005260406000206000915090508060000160009054906101000a900473ffffffffffffffffffffffffffffffffffffffff16908060010154908060020154908060030154908060040154908060050154908060060154908060070160009054906101000a900460ff16905088565b600160009054906101000a900473ffffffffffffffffffffffffffffffffffffffff1673ffffffffffffffffffffffffffffffffffffffff163373ffffffffffffffffffffffffffffffffffffffff16146117a7576040517f08c379a000000000000000000000000000000000000000000000000000000000815260040161179e906122e6565b60405180910390fd5b600073ffffffffffffffffffffffffffffffffffffffff168173ffffffffffffffffffffffffffffffffffffffff1603611816576040517f08c379a000000000000000000000000000000000000000000000000000000000815260040161180d90612352565b60405180910390fd5b80600260006101000a81548173ffffffffffffffffffffffffffffffffffffffff021916908373ffffffffffffffffffffffffffffffffffffffff16021790555050565b600160009054906101000a900473ffffffffffffffffffffffffffffffffffffffff1673ffffffffffffffffffffffffffffffffffffffff163373ffffffffffffffffffffffffffffffffffffffff16146118ea576040517f08c379a00000000000000000000000000000000000000000000000000000000081526004016118e1906122e6565b60405180910390fd5b6000821180156118fa5750600081115b611939576040517f08c379a000000000000000000000000000000000000000000000000000000000815260040161193090612558565b60405180910390fd5b81600781905550806008819055505050565b600160009054906101000a900473ffffffffffffffffffffffffffffffffffffffff1673ffffffffffffffffffffffffffffffffffffffff163373ffffffffffffffffffffffffffffffffffffffff16146119db576040517f08c379a00000000000000000000000000000000000000000000000000000000081526004016119d2906122e6565b60405180910390fd5b6000811180156119eb5750600082115b611a2a576040517f08c379a0000000000000000000000000000000000000000000000000000000008152600401611a2190612558565b60405180910390fd5b81600381905550806004819055505050565b600160009054906101000a900473ffffffffffffffffffffffffffffffffffffffff1673ffffffffffffffffffffffffffffffffffffffff163373ffffffffffffffffffffffffffffffffffffffff1614611acc576040517f08c379a0000000000000000000000000000000000000000000000000000000008152600401611ac3906122e6565b60405180910390fd5b60008111611b0f576040517f08c379a0000000000000000000000000000000000000000000000000000000008152600401611b0690612558565b60405180910390fd5b8060058190555050565b604051806101000160405280600073ffffffffffffffffffffffffffffffffffffffff1681526020016000815260200160008152602001600081526020016000815260200160008152602001600081526020016000151581525090565b6000604051905090565b600080fd5b600073ffffffffffffffffffffffffffffffffffffffff82169050919050565b6000611bb082611b85565b9050919050565b611bc081611ba5565b8114611bcb57600080fd5b50565b600081359050611bdd81611bb7565b92915050565b6000819050919050565b611bf681611be3565b8114611c0157600080fd5b50565b600081359050611c1381611bed565b92915050565b60008060408385031215611c3057611c2f611b80565b5b6000611c3e85828601611bce565b9250506020611c4f85828601611c04565b9150509250929050565b600060208284031215611c6f57611c6e611b80565b5b6000611c7d84828501611bce565b91505092915050565b611c8f81611be3565b82525050565b6000602082019050611caa6000830184611c86565b92915050565b600080fd5b6000601f19601f8301169050919050565b7f4e487b7100000000000000000000000000000000000000000000000000000000600052604160045260246000fd5b611cfe82611cb5565b810181811067ffffffffffffffff82111715611d1d57611d1c611cc6565b5b80604052505050565b6000611d30611b76565b9050611d3c8282611cf5565b919050565b60008115159050919050565b611d5681611d41565b8114611d6157600080fd5b50565b600081359050611d7381611d4d565b92915050565b60006101008284031215611d9057611d8f611cb0565b5b611d9b610100611d26565b90506000611dab84828501611bce565b6000830152506020611dbf84828501611c04565b6020830152506040611dd384828501611c04565b6040830152506060611de784828501611c04565b6060830152506080611dfb84828501611c04565b60808301525060a0611e0f84828501611c04565b60a08301525060c0611e2384828501611c04565b60c08301525060e0611e3784828501611d64565b60e08301525092915050565b6000806101208385031215611e5b57611e5a611b80565b5b6000611e6985828601611d79565b925050610100611e7b85828601611c04565b9150509250929050565b600060208284031215611e9b57611e9a611b80565b5b6000611ea984828501611c04565b91505092915050565b600080600060608486031215611ecb57611eca611b80565b5b6000611ed986828701611bce565b9350506020611eea86828701611c04565b9250506040611efb86828701611c04565b9150509250925092565b611f0e81611ba5565b82525050565b611f1d81611be3565b82525050565b611f2c81611d41565b82525050565b61010082016000820151611f496000850182611f05565b506020820151611f5c6020850182611f14565b506040820151611f6f6040850182611f14565b506060820151611f826060850182611f14565b506080820151611f956080850182611f14565b5060a0820151611fa860a0850182611f14565b5060c0820151611fbb60c0850182611f14565b5060e0820151611fce60e0850182611f23565b50505050565b600061010082019050611fea6000830184611f32565b92915050565b611ff981611ba5565b82525050565b61200881611d41565b82525050565b600061010082019050612024600083018b611ff0565b612031602083018a611c86565b61203e6040830189611c86565b61204b6060830188611c86565b6120586080830187611c86565b61206560a0830186611c86565b61207260c0830185611c86565b61207f60e0830184611fff565b9998505050505050505050565b600080604083850312156120a3576120a2611b80565b5b60006120b185828601611c04565b92505060206120c285828601611c04565b9150509250929050565b600082825260208201905092915050565b7f437265617465506f6f6c3a204c6172676572207468616e205a65726f00000000600082015250565b6000612113601c836120cc565b915061211e826120dd565b602082019050919050565b6000602082019050818103600083015261214281612106565b9050919050565b7f437265617465506f6f6c3a204e6f6e205a65726f204164647265737300000000600082015250565b600061217f601c836120cc565b915061218a82612149565b602082019050919050565b600060208201905081810360008301526121ae81612172565b9050919050565b7f437265617465506f6f6c3a2056616c756520416d6f756e740000000000000000600082015250565b60006121eb6018836120cc565b91506121f6826121b5565b602082019050919050565b6000602082019050818103600083015261221a816121de565b9050919050565b60006060820190506122366000830186611ff0565b6122436020830185611ff0565b6122506040830184611c86565b949350505050565b60008151905061226781611d4d565b92915050565b60006020828403121561228357612282611b80565b5b600061229184828501612258565b91505092915050565b7f4e6f74204f776e65720000000000000000000000000000000000000000000000600082015250565b60006122d06009836120cc565b91506122db8261229a565b602082019050919050565b600060208201905081810360008301526122ff816122c3565b9050919050565b7f4e6f6e207a65726f204164647265737300000000000000000000000000000000600082015250565b600061233c6010836120cc565b915061234782612306565b602082019050919050565b6000602082019050818103600083015261236b8161232f565b9050919050565b7f53686f756c6420426520436f6d706c6574656400000000000000000000000000600082015250565b60006123a86013836120cc565b91506123b382612372565b602082019050919050565b600060208201905081810360008301526123d78161239b565b9050919050565b60006040820190506123f36000830185611ff0565b6124006020830184611c86565b9392505050565b7f4e487b7100000000000000000000000000000000000000000000000000000000600052601160045260246000fd5b600061244182611be3565b915061244c83611be3565b925082820390508181111561246457612463612407565b5b92915050565b600061247582611be3565b915061248083611be3565b925082820261248e81611be3565b915082820484148315176124a5576124a4612407565b5b5092915050565b7f4e487b7100000000000000000000000000000000000000000000000000000000600052601260045260246000fd5b60006124e682611be3565b91506124f183611be3565b925082612501576125006124ac565b5b828204905092915050565b7f53686f756c64204c6172676572207468616e207a65726f000000000000000000600082015250565b60006125426017836120cc565b915061254d8261250c565b602082019050919050565b6000602082019050818103600083015261257181612535565b9050919050565b7f53686f756c64204e6f7420436f6d706c65746564000000000000000000000000600082015250565b60006125ae6014836120cc565b91506125b982612578565b602082019050919050565b600060208201905081810360008301526125dd816125a1565b9050919050565b7f53686f756c64204265204c6172676572207468616e204d696e00000000000000600082015250565b600061261a6019836120cc565b9150612625826125e4565b602082019050919050565b600060208201905081810360008301526126498161260d565b9050919050565b600061265b82611be3565b915061266683611be3565b925082820190508082111561267e5761267d612407565b5b92915050565b600060c0820190506126996000830189611c86565b6126a66020830188611c86565b6126b36040830187611fff565b6126c06060830186611c86565b6126cd6080830185611c86565b6126da60a0830184611c86565b979650505050505050565b7f42757920416d6f756e74204f7665720000000000000000000000000000000000600082015250565b600061271b600f836120cc565b9150612726826126e5565b602082019050919050565b6000602082019050818103600083015261274a8161270e565b9050919050565b7f4d61782045746820436f73740000000000000000000000000000000000000000600082015250565b6000612787600c836120cc565b915061279282612751565b602082019050919050565b600060208201905081810360008301526127b68161277a565b9050919050565b7f4578636565642045544820436f73740000000000000000000000000000000000600082015250565b60006127f3600f836120cc565b91506127fe826127bd565b602082019050919050565b60006020820190508181036000830152612822816127e6565b905091905056fea264697066735822122039e1fc208a96d206e24b8962006d1517d0941e457ba5cf475b4d98c353cf555664736f6c63430008180033",
  "linkReferences": {},
  "deployedLinkReferences": {}
}